{
  "_format": "hh-sol-artifact-1",
  "contractName": "Ecommerce",
  "sourceName": "contracts/Ecommerce.sol",
  "abi": [
    {
      "anonymous": false,
      "inputs": [
        {
          "indexed": false,
          "internalType": "uint256",
          "name": "id",
          "type": "uint256"
        },
        {
          "indexed": false,
          "internalType": "address",
          "name": "buyer",
          "type": "address"
        }
      ],
      "name": "bought",
      "type": "event"
    },
    {
      "anonymous": false,
      "inputs": [
        {
          "indexed": false,
          "internalType": "uint256",
          "name": "id",
          "type": "uint256"
        }
      ],
      "name": "deliver",
      "type": "event"
    },
    {
      "anonymous": false,
      "inputs": [
        {
          "indexed": false,
          "internalType": "string",
          "name": "title",
          "type": "string"
        },
        {
          "indexed": false,
          "internalType": "address",
          "name": "seller",
          "type": "address"
        },
        {
          "indexed": false,
          "internalType": "uint256",
          "name": "id",
          "type": "uint256"
        }
      ],
      "name": "register",
      "type": "event"
    },
    {
      "inputs": [
        {
          "internalType": "uint256",
          "name": "_id",
          "type": "uint256"
        }
      ],
      "name": "buy",
      "outputs": [],
      "stateMutability": "payable",
      "type": "function"
    },
    {
      "inputs": [
        {
          "internalType": "uint256",
          "name": "_id",
          "type": "uint256"
        }
      ],
      "name": "delivery",
      "outputs": [],
      "stateMutability": "nonpayable",
      "type": "function"
    },
    {
      "inputs": [],
      "name": "getAllTransactions",
      "outputs": [
        {
          "components": [
            {
              "internalType": "string",
              "name": "title",
              "type": "string"
            },
            {
              "internalType": "string",
              "name": "desc",
              "type": "string"
            },
            {
              "internalType": "address payable",
              "name": "seller",
              "type": "address"
            },
            {
              "internalType": "uint256",
              "name": "id",
              "type": "uint256"
            },
            {
              "internalType": "uint256",
              "name": "price",
              "type": "uint256"
            },
            {
              "internalType": "address",
              "name": "buyer",
              "type": "address"
            },
            {
              "internalType": "bool",
              "name": "delivered",
              "type": "bool"
            }
          ],
          "internalType": "struct Ecommerce.Product[]",
          "name": "",
          "type": "tuple[]"
        }
      ],
      "stateMutability": "view",
      "type": "function"
    },
    {
      "inputs": [
        {
          "internalType": "uint256",
          "name": "",
          "type": "uint256"
        }
      ],
      "name": "products",
      "outputs": [
        {
          "internalType": "string",
          "name": "title",
          "type": "string"
        },
        {
          "internalType": "string",
          "name": "desc",
          "type": "string"
        },
        {
          "internalType": "address payable",
          "name": "seller",
          "type": "address"
        },
        {
          "internalType": "uint256",
          "name": "id",
          "type": "uint256"
        },
        {
          "internalType": "uint256",
          "name": "price",
          "type": "uint256"
        },
        {
          "internalType": "address",
          "name": "buyer",
          "type": "address"
        },
        {
          "internalType": "bool",
          "name": "delivered",
          "type": "bool"
        }
      ],
      "stateMutability": "view",
      "type": "function"
    },
    {
      "inputs": [
        {
          "internalType": "string",
          "name": "_title",
          "type": "string"
        },
        {
          "internalType": "string",
          "name": "_desc",
          "type": "string"
        },
        {
          "internalType": "uint256",
          "name": "_price",
          "type": "uint256"
        }
      ],
      "name": "registerProduct",
      "outputs": [],
      "stateMutability": "nonpayable",
      "type": "function"
    }
  ],
  "bytecode": "0x6080604052600160005534801561001557600080fd5b506116db806100256000396000f3fe60806040526004361061004a5760003560e01c80631144fd721461004f57806327506f53146100785780633153a15b146100a35780637acc0b20146100cc578063d96a094a1461010f575b600080fd5b34801561005b57600080fd5b5061007660048036038101906100719190610cbc565b61012b565b005b34801561008457600080fd5b5061008d610333565b60405161009a9190610f73565b60405180910390f35b3480156100af57600080fd5b506100ca60048036038101906100c591906110ca565b610591565b005b3480156100d857600080fd5b506100f360048036038101906100ee9190610cbc565b6107d9565b60405161010697969594939291906111db565b60405180910390f35b61012960048036038101906101249190610cbc565b610988565b005b3373ffffffffffffffffffffffffffffffffffffffff16600180836101509190611287565b81548110610161576101606112bb565b5b906000526020600020906006020160050160009054906101000a900473ffffffffffffffffffffffffffffffffffffffff1673ffffffffffffffffffffffffffffffffffffffff16146101e9576040517f08c379a00000000000000000000000000000000000000000000000000000000081526004016101e090611336565b60405180910390fd5b6001806001836101f99190611287565b8154811061020a576102096112bb565b5b906000526020600020906006020160050160146101000a81548160ff021916908315150217905550600180826102409190611287565b81548110610251576102506112bb565b5b906000526020600020906006020160020160009054906101000a900473ffffffffffffffffffffffffffffffffffffffff1673ffffffffffffffffffffffffffffffffffffffff166108fc600180846102aa9190611287565b815481106102bb576102ba6112bb565b5b9060005260206000209060060201600401549081150290604051600060405180830381858888f193505050501580156102f8573d6000803e3d6000fd5b507f3bd5d173de13c220c276bd68f2ae519dc3e68f047c3ee3635c612c99539b25c9816040516103289190611356565b60405180910390a150565b60606001805480602002602001604051908101604052809291908181526020016000905b8282101561058857838290600052602060002090600602016040518060e001604052908160008201805461038a906113a0565b80601f01602080910402602001604051908101604052809291908181526020018280546103b6906113a0565b80156104035780601f106103d857610100808354040283529160200191610403565b820191906000526020600020905b8154815290600101906020018083116103e657829003601f168201915b5050505050815260200160018201805461041c906113a0565b80601f0160208091040260200160405190810160405280929190818152602001828054610448906113a0565b80156104955780601f1061046a57610100808354040283529160200191610495565b820191906000526020600020905b81548152906001019060200180831161047857829003601f168201915b505050505081526020016002820160009054906101000a900473ffffffffffffffffffffffffffffffffffffffff1673ffffffffffffffffffffffffffffffffffffffff1673ffffffffffffffffffffffffffffffffffffffff16815260200160038201548152602001600482015481526020016005820160009054906101000a900473ffffffffffffffffffffffffffffffffffffffff1673ffffffffffffffffffffffffffffffffffffffff1673ffffffffffffffffffffffffffffffffffffffff1681526020016005820160149054906101000a900460ff16151515158152505081526020019060010190610357565b50505050905090565b600081116105d4576040517f08c379a00000000000000000000000000000000000000000000000000000000081526004016105cb90611444565b60405180910390fd5b6105dc610b64565b838160000181905250828160200181905250670de0b6b3a7640000826106029190611464565b81608001818152505033816040019073ffffffffffffffffffffffffffffffffffffffff16908173ffffffffffffffffffffffffffffffffffffffff168152505060005481606001818152505060018190806001815401808255809150506001900390600052602060002090600602016000909190919091506000820151816000019080519060200190610697929190610bcf565b5060208201518160010190805190602001906106b4929190610bcf565b5060408201518160020160006101000a81548173ffffffffffffffffffffffffffffffffffffffff021916908373ffffffffffffffffffffffffffffffffffffffff160217905550606082015181600301556080820151816004015560a08201518160050160006101000a81548173ffffffffffffffffffffffffffffffffffffffff021916908373ffffffffffffffffffffffffffffffffffffffff16021790555060c08201518160050160146101000a81548160ff021916908315150217905550505060008081548092919061078b906114be565b91905055507fd393c871b7d993cbf79aad6eeeb6d640119754ff232f2af7371a04b16150a73884826040015183606001516040516107cb93929190611566565b60405180910390a150505050565b600181815481106107e957600080fd5b906000526020600020906006020160009150905080600001805461080c906113a0565b80601f0160208091040260200160405190810160405280929190818152602001828054610838906113a0565b80156108855780601f1061085a57610100808354040283529160200191610885565b820191906000526020600020905b81548152906001019060200180831161086857829003601f168201915b50505050509080600101805461089a906113a0565b80601f01602080910402602001604051908101604052809291908181526020018280546108c6906113a0565b80156109135780601f106108e857610100808354040283529160200191610913565b820191906000526020600020905b8154815290600101906020018083116108f657829003601f168201915b5050505050908060020160009054906101000a900473ffffffffffffffffffffffffffffffffffffffff16908060030154908060040154908060050160009054906101000a900473ffffffffffffffffffffffffffffffffffffffff16908060050160149054906101000a900460ff16905087565b34600180836109979190611287565b815481106109a8576109a76112bb565b5b906000526020600020906006020160040154146109fa576040517f08c379a00000000000000000000000000000000000000000000000000000000081526004016109f1906115f0565b60405180910390fd5b3373ffffffffffffffffffffffffffffffffffffffff1660018083610a1f9190611287565b81548110610a3057610a2f6112bb565b5b906000526020600020906006020160020160009054906101000a900473ffffffffffffffffffffffffffffffffffffffff1673ffffffffffffffffffffffffffffffffffffffff161415610ab9576040517f08c379a0000000000000000000000000000000000000000000000000000000008152600401610ab09061165c565b60405180910390fd5b3360018083610ac89190611287565b81548110610ad957610ad86112bb565b5b906000526020600020906006020160050160006101000a81548173ffffffffffffffffffffffffffffffffffffffff021916908373ffffffffffffffffffffffffffffffffffffffff1602179055507f2c9b5e9655a41ab13c5183c231239df125ecbd546a947624c913cfd43094906e8133604051610b5992919061167c565b60405180910390a150565b6040518060e001604052806060815260200160608152602001600073ffffffffffffffffffffffffffffffffffffffff1681526020016000815260200160008152602001600073ffffffffffffffffffffffffffffffffffffffff1681526020016000151581525090565b828054610bdb906113a0565b90600052602060002090601f016020900481019282610bfd5760008555610c44565b82601f10610c1657805160ff1916838001178555610c44565b82800160010185558215610c44579182015b82811115610c43578251825591602001919060010190610c28565b5b509050610c519190610c55565b5090565b5b80821115610c6e576000816000905550600101610c56565b5090565b6000604051905090565b600080fd5b600080fd5b6000819050919050565b610c9981610c86565b8114610ca457600080fd5b50565b600081359050610cb681610c90565b92915050565b600060208284031215610cd257610cd1610c7c565b5b6000610ce084828501610ca7565b91505092915050565b600081519050919050565b600082825260208201905092915050565b6000819050602082019050919050565b600081519050919050565b600082825260208201905092915050565b60005b83811015610d4f578082015181840152602081019050610d34565b83811115610d5e576000848401525b50505050565b6000601f19601f8301169050919050565b6000610d8082610d15565b610d8a8185610d20565b9350610d9a818560208601610d31565b610da381610d64565b840191505092915050565b600073ffffffffffffffffffffffffffffffffffffffff82169050919050565b6000610dd982610dae565b9050919050565b610de981610dce565b82525050565b610df881610c86565b82525050565b6000610e0982610dae565b9050919050565b610e1981610dfe565b82525050565b60008115159050919050565b610e3481610e1f565b82525050565b600060e0830160008301518482036000860152610e578282610d75565b91505060208301518482036020860152610e718282610d75565b9150506040830151610e866040860182610de0565b506060830151610e996060860182610def565b506080830151610eac6080860182610def565b5060a0830151610ebf60a0860182610e10565b5060c0830151610ed260c0860182610e2b565b508091505092915050565b6000610ee98383610e3a565b905092915050565b6000602082019050919050565b6000610f0982610ce9565b610f138185610cf4565b935083602082028501610f2585610d05565b8060005b85811015610f615784840389528151610f428582610edd565b9450610f4d83610ef1565b925060208a01995050600181019050610f29565b50829750879550505050505092915050565b60006020820190508181036000830152610f8d8184610efe565b905092915050565b600080fd5b600080fd5b7f4e487b7100000000000000000000000000000000000000000000000000000000600052604160045260246000fd5b610fd782610d64565b810181811067ffffffffffffffff82111715610ff657610ff5610f9f565b5b80604052505050565b6000611009610c72565b90506110158282610fce565b919050565b600067ffffffffffffffff82111561103557611034610f9f565b5b61103e82610d64565b9050602081019050919050565b82818337600083830152505050565b600061106d6110688461101a565b610fff565b90508281526020810184848401111561108957611088610f9a565b5b61109484828561104b565b509392505050565b600082601f8301126110b1576110b0610f95565b5b81356110c184826020860161105a565b91505092915050565b6000806000606084860312156110e3576110e2610c7c565b5b600084013567ffffffffffffffff81111561110157611100610c81565b5b61110d8682870161109c565b935050602084013567ffffffffffffffff81111561112e5761112d610c81565b5b61113a8682870161109c565b925050604061114b86828701610ca7565b9150509250925092565b600082825260208201905092915050565b600061117182610d15565b61117b8185611155565b935061118b818560208601610d31565b61119481610d64565b840191505092915050565b6111a881610dce565b82525050565b6111b781610c86565b82525050565b6111c681610dfe565b82525050565b6111d581610e1f565b82525050565b600060e08201905081810360008301526111f5818a611166565b905081810360208301526112098189611166565b9050611218604083018861119f565b61122560608301876111ae565b61123260808301866111ae565b61123f60a08301856111bd565b61124c60c08301846111cc565b98975050505050505050565b7f4e487b7100000000000000000000000000000000000000000000000000000000600052601160045260246000fd5b600061129282610c86565b915061129d83610c86565b9250828210156112b0576112af611258565b5b828203905092915050565b7f4e487b7100000000000000000000000000000000000000000000000000000000600052603260045260246000fd5b7f4f6e6c7920627579657220636f6e6669726d2069740000000000000000000000600082015250565b6000611320601583611155565b915061132b826112ea565b602082019050919050565b6000602082019050818103600083015261134f81611313565b9050919050565b600060208201905061136b60008301846111ae565b92915050565b7f4e487b7100000000000000000000000000000000000000000000000000000000600052602260045260246000fd5b600060028204905060018216806113b857607f821691505b602082108114156113cc576113cb611371565b5b50919050565b7f50726963652053686f756c642062652067726574686572207468616e207a657260008201527f6f00000000000000000000000000000000000000000000000000000000000000602082015250565b600061142e602183611155565b9150611439826113d2565b604082019050919050565b6000602082019050818103600083015261145d81611421565b9050919050565b600061146f82610c86565b915061147a83610c86565b9250817fffffffffffffffffffffffffffffffffffffffffffffffffffffffffffffffff04831182151516156114b3576114b2611258565b5b828202905092915050565b60006114c982610c86565b91507fffffffffffffffffffffffffffffffffffffffffffffffffffffffffffffffff8214156114fc576114fb611258565b5b600182019050919050565b6000819050919050565b600061152c61152761152284610dae565b611507565b610dae565b9050919050565b600061153e82611511565b9050919050565b600061155082611533565b9050919050565b61156081611545565b82525050565b600060608201905081810360008301526115808186611166565b905061158f6020830185611557565b61159c60408301846111ae565b949350505050565b7f506c656173652050617920657865637420707269636500000000000000000000600082015250565b60006115da601683611155565b91506115e5826115a4565b602082019050919050565b60006020820190508181036000830152611609816115cd565b9050919050565b7f53656c6c65722063616e6e6f742070757263686173652070726f647563740000600082015250565b6000611646601e83611155565b915061165182611610565b602082019050919050565b6000602082019050818103600083015261167581611639565b9050919050565b600060408201905061169160008301856111ae565b61169e60208301846111bd565b939250505056fea26469706673582212204f16ff1048484b2a22d892e9bc7e694ca953cbe36a5cb446eb668c58af71d30564736f6c63430008090033",
  "linkReferences": {},
  "deployedLinkReferences": {}
}